{
  "contractName": "RambodToken",
  "abi": [
    {
      "inputs": [],
      "payable": false,
      "stateMutability": "nonpayable",
      "type": "constructor"
    },
    {
      "constant": true,
      "inputs": [],
      "name": "totalSupply",
      "outputs": [
        {
          "internalType": "uint256",
          "name": "",
          "type": "uint256"
        }
      ],
      "payable": false,
      "stateMutability": "view",
      "type": "function"
    }
  ],
  "bytecode": "0x6080604052348015600f57600080fd5b5062015f906000819055506084806100286000396000f3fe6080604052348015600f57600080fd5b506004361060285760003560e01c806318160ddd14602d575b600080fd5b60336049565b6040518082815260200191505060405180910390f35b6000548156fea265627a7a72315820ccac426ddb6d7faee0f07b2f159c0db1fd5eac2ef01d862b5f9bf381a0766feb64736f6c63430005100032",
  "source": "pragma solidity >=0.4.22 <0.8.4;\n\ncontract RambodToken {\n\n    uint256 public totalSupply;\n    // Constructor\n    constructor() public{\n        totalSupply = 90000;\n    }\n}\n",
  "sourcePath": "/home/rambod/WebstormProjects/erc20-playground/contracts/RambodToken.sol",
  "compiler": {
    "name": "solc",
    "version": "0.5.16+commit.9c3226ce.Emscripten.clang"
  },
  "schemaVersion": "3.3.2",
  "updatedAt": "2021-07-11T17:38:57.902Z",
  "networkType": "ethereum",
  "devdoc": {
    "methods": {}
  },
  "userdoc": {
    "methods": {}
  }
}